{
  "_format": "hh-sol-artifact-1",
  "contractName": "FundraisingDAO",
  "sourceName": "contracts/FundraisingDAO.sol",
  "abi": [
    {
      "inputs": [],
      "stateMutability": "nonpayable",
      "type": "constructor"
    },
    {
      "anonymous": false,
      "inputs": [
        {
          "indexed": true,
          "internalType": "address",
          "name": "donor",
          "type": "address"
        },
        {
          "indexed": false,
          "internalType": "uint256",
          "name": "amount",
          "type": "uint256"
        }
      ],
      "name": "DonationReceived",
      "type": "event"
    },
    {
      "anonymous": false,
      "inputs": [
        {
          "indexed": false,
          "internalType": "uint256",
          "name": "totalDistributed",
          "type": "uint256"
        }
      ],
      "name": "FundsDistributed",
      "type": "event"
    },
    {
      "inputs": [],
      "name": "admin",
      "outputs": [
        {
          "internalType": "address",
          "name": "",
          "type": "address"
        }
      ],
      "stateMutability": "view",
      "type": "function"
    },
    {
      "inputs": [
        {
          "internalType": "address payable",
          "name": "recipient",
          "type": "address"
        },
        {
          "internalType": "uint256",
          "name": "amount",
          "type": "uint256"
        }
      ],
      "name": "distributeFunds",
      "outputs": [],
      "stateMutability": "nonpayable",
      "type": "function"
    },
    {
      "inputs": [],
      "name": "donate",
      "outputs": [],
      "stateMutability": "payable",
      "type": "function"
    },
    {
      "inputs": [
        {
          "internalType": "address",
          "name": "",
          "type": "address"
        }
      ],
      "name": "donations",
      "outputs": [
        {
          "internalType": "uint256",
          "name": "",
          "type": "uint256"
        }
      ],
      "stateMutability": "view",
      "type": "function"
    },
    {
      "inputs": [],
      "name": "getTotalFunds",
      "outputs": [
        {
          "internalType": "uint256",
          "name": "",
          "type": "uint256"
        }
      ],
      "stateMutability": "view",
      "type": "function"
    },
    {
      "inputs": [
        {
          "internalType": "uint256",
          "name": "a",
          "type": "uint256"
        },
        {
          "internalType": "uint256",
          "name": "b",
          "type": "uint256"
        }
      ],
      "name": "pureExample",
      "outputs": [
        {
          "internalType": "uint256",
          "name": "",
          "type": "uint256"
        }
      ],
      "stateMutability": "pure",
      "type": "function"
    }
  ],
  "bytecode": "0x6080604052348015600f57600080fd5b50600180546001600160a01b031916331790556103d5806100316000396000f3fe6080604052600436106100555760003560e01c8063071e9a761461005a578063a90bfca11461007c578063cc6cb19a146100af578063eb8bbd28146100dc578063ed88c68e146100ef578063f851a440146100f7575b600080fd5b34801561006657600080fd5b5061007a61007536600461030c565b61012f565b005b34801561008857600080fd5b5061009c610097366004610338565b610234565b6040519081526020015b60405180910390f35b3480156100bb57600080fd5b5061009c6100ca36600461035a565b60006020819052908152604090205481565b3480156100e857600080fd5b504761009c565b61007a610249565b34801561010357600080fd5b50600154610117906001600160a01b031681565b6040516001600160a01b0390911681526020016100a6565b6001546001600160a01b0316331461017f5760405162461bcd60e51b815260206004820152600e60248201526d139bdd08185d5d1a1bdc9a5e995960921b60448201526064015b60405180910390fd5b804710156101c65760405162461bcd60e51b8152602060048201526014602482015273496e73756666696369656e742062616c616e636560601b6044820152606401610176565b6040516001600160a01b0383169082156108fc029083906000818181858888f193505050501580156101fc573d6000803e3d6000fd5b506040518181527f8eecd6f35243e1875b7143b093766263953bc97e6e92213e4ae934c67e1fe0de9060200160405180910390a15050565b6000610240828461037e565b90505b92915050565b600034116102995760405162461bcd60e51b815260206004820152601f60248201527f446f6e6174696f6e206d7573742062652067726561746572207468616e2030006044820152606401610176565b33600090815260208190526040812080543492906102b890849061037e565b909155505060405134815233907f264f630d9efa0d07053a31163641d9fcc0adafc9d9e76f1c37c2ce3a558d2c529060200160405180910390a2565b6001600160a01b038116811461030957600080fd5b50565b6000806040838503121561031f57600080fd5b823561032a816102f4565b946020939093013593505050565b6000806040838503121561034b57600080fd5b50508035926020909101359150565b60006020828403121561036c57600080fd5b8135610377816102f4565b9392505050565b8082018082111561024357634e487b7160e01b600052601160045260246000fdfea264697066735822122053014d30546f3c04869ccef81ec681ccb1ecba34ba8caad766d1dc7eeaf7bf0564736f6c634300081b0033",
  "linkReferences": {},
  "deployedLinkReferences": {}
}